:0200000076C0C8
:10000200FECFFDCFFCCFFBCFFACFF9CFF8CFF7CFA2
:10001200F6CFF5CFF4CFF3CFF2CFF1CFF0CFEFCFD2
:10002200EECFEDCF3F0006005B004F0066006D0093
:100032007D0007007F006F00C000F900A400B0003F
:100042009900920082008F0080009000BF0086001D
:10005200DB00CF00E600ED00FD008700FF00EF00AF
:1000620040007900240030001900120002007800DC
:10007200000010009C0063004600B9004D6F6E0046
:1000820054756500576564005468750046726900CE
:100092005361720053756E002533630025302E3292
:1000A200643A25302E32643A25302E326420002FF5
:1000B200000080C02D4E414E000001002D4E414EE9
:1000C20000494E46000013007F013A0013009301DD
:1000D20062000100A70176000100A8017A00020077
:1000E200AD01B4000100B401BC000000F894EE2799
:1000F200ECBBF1E0FBBFEBBFE5BF8DE0A2E0BB27AD
:10010200ED938A95E9F780E094E0A0E6ED930197FC
:10011200E9F7E8ECF0E085919591009761F0A591FF
:10012200B59105901590BF01F00105900D920197D0
:10013200E1F7FB01F0CFEFE5EDBFE4E0EEBFC0E693
:10014200D1E0DAC0AA93E881F0E0E130A0E0FA075A
:1001520021F4AEE7B0E070D22FC0E230A0E0FA079F
:1001620021F4A2E8B0E068D227C0E330A0E0FA07A9
:1001720021F4A6E8B0E060D21FC0E430A0E0FA07A4
:1001820021F4AAE8B0E058D217C0E530A0E0FA079F
:1001920021F4AEE8B0E050D20FC0E630A0E0FA079A
:1001A20021F4A2E9B0E048D207C0E730A0E0FA07A4
:1001B20019F4A6E9B0E040D2E5E7F1E032D6EAE987
:1001C200F0E02FD6EC8130D684E0FCD42896A5E767
:1001D200B1E024D26BC28D9A8E9A8F9A0895959A25
:1001E20082E08A95F1F7959805C0979A82E08A9500
:1001F200F1F7979882E08A95F1F708951AD6E0E030
:10020200E093A901A091A901A83080F4E885E078E3
:1002120011F0969A01C09698E2DF0ED610D612D649
:10022200E091A901EF5FE093A901ECCFE0E0E09358
:10023200AA01A091AA01A83088F4EE81E07811F019
:10024200969A01C09698CBDF00D6F9D5EE83FF834C
:10025200E091AA01EF5FE093AA01EBCFE0E0E09327
:10026200AB01A091AB01A83090F4EC81E07811F0E1
:10027200969A01C09698B3DFEC81FD81E0D5EC83BC
:10028200FD83E091AB01EF5FE093AB01EACFE0E0E9
:10029200E093AC01A091AC01A83090F4EA81E0783F
:1002A20011F0969A01C096989ADFEA81FB81C7D530
:1002B200EA83FB83E091AC01EF5FE093AC01EACF0C
:1002C200E0E0E0937901A0917901A83090F4E8810F
:1002D200E07811F0969A01C0969881DFE881F98161
:1002E200AED5E883F983E0917901EF5FE09379017C
:1002F200EACF7BDF2A960895E0E0E7BBE8BBE4BBE8
:10030200E5BBE0EEE1BBE0E0E2BBE3BFE2BFEFBD95
:10031200EEBDEDBDECBDE7BDE6BDEBBDEABDE9BDA1
:10032200E8BDE2BDE5BDE4BDE3BDE9BFE5BFEAB9B5
:10033200E0E8E8B9E0E0E0BFE6B9EDB9E6BFF5D63E
:10034200E0E0EA93E1E0EA93A0E0B3D049D7A0E18C
:1003520085D141DFEAE0EA93EA93AAE0D0D0E3E074
:10036200EA93E5E1EA93E7E0EA93A4E1E1D038D742
:10037200ACEC7CD7A4E47AD7A8EC6AD531D7ACEC44
:1003820075D7AEEB73D76DD7E09369016AD7E09367
:100392006A01E0916901EF70E0936B01E695E093E9
:1003A2006C01E0916B01E695E695E695A0916C01F2
:1003B200EA2BE0936C014ED52F014CD53F015CD561
:1003C2004F01F301AAE0B0E026D95F01F401EA1976
:1003D200FB096F01E091A801F0E023D5E091A701AC
:1003E200F0E01FD549D5DF01EAE0F0E078D949D540
:1003F2004FD575D9A3E9B1E022D5AE0FBF1F9ED963
:1004020047D524D93ED5DF01F9DEE8E7F1E009D589
:10041200E9E7F1E006D5AAE7B1E061D0EBE7F1E068
:1004220000D5ECE7F1E0FDD4EDE7F1E0FAD4AEE778
:10043200B1E06DD0EDE6F1E0F4D4EEE9F0E0F1D414
:10044200E0917801F1D4E0917901EED4E0917A0162
:10045200EBD48CE0B7D36096E2E0EA93A0E09DD0C3
:10046200ADE6B1E0DBD0E0E0EA93A1E096D0A09166
:100472007B0168DE12D5A0917C0112D5A0917C018E
:1004820016D5A0917D010CD5A0917D0110D5A2E3D6
:10049200A5D0A0E3A3D0A0917E0102D5A0917E01B8
:1004A200BB27EAE0F0E01ED9E05DAE2F97D05FCF28
:1004B200FFCFAA93EA81E370EA83E981E03019F081
:1004C200EA81E061EA83E881E03019F0EA81E068DC
:1004D200EA83F5D4A7E062D6AA81F4D4BDC0A9D438
:1004E200EED4A0E0EFD4F0D4F4D4A881B981F3D44F
:1004F200F6D4AC81BD81EC932CD626960895AA93AE
:10050200DED4A0E0F2D4F6D4FAD4DCD4A5C091D4DF
:10051200D6D4A3E0D7D4D8D4F7D4DDD4AC81BD816E
:10052200DAD4DDD4A881B981EC9313D62896089544
:10053200AA93C5D4A3E032D6AB81E1D4DBD4D5D41F
:10054200C1D4E2C3AA93E881E07111F0AB9A01C071
:10055200AB98E881E07211F0909A01C09098E8811E
:10056200E07411F0919A01C09198E881E07811F05D
:10057200929A01C09298CBD4AA9AC9D4AA98C7D405
:1005820095C0AA93A881DEDFE881E295E883A8817D
:10059200D9DF8BE78A95F1F789C0AA93E881F0E069
:1005A200E355FE4FE081A981AE0FEBDFE981E093D5
:1005B200B101E881E093B20122960895A2E0E1DF61
:1005C200A3E046D4ACE0DDDFA1E0DBDFA3E040D472
:1005D200E0E0E093B201E093B1010895AA93A8810B
:1005E200AA3031F0E091B301A091B101AE1760F0F1
:1005F200E0E0EA93A091B201AF5FA093B201CDDF38
:10060200A881AA3009F452C0E091B101EF5FE093F2
:10061200B101A89AA881B5DFA89848C00AD41A9354
:10062200A981BA81ED91A983BA831E2FE03019F016
:10063200A12FD4DFF5CF0FC0FCD31A93E981FA8141
:100642003196E983FA833197E4911E2FE03019F055
:10065200A12FC4DFF3CF188123960895AA93A39AFA
:10066200889A899A8A9AA29AA09AA19AAA98A898EC
:10067200A998E881E093B301E058E093AF01E881E3
:10068200E054E093B001A4E1E3D345D444D443D48D
:10069200A0E258DF86EF8A95F1F7A8E272DFA4E0C4
:1006A20070DFA5E86EDFA6E06CDF88DF2196089593
:1006B200C0D37CD836D4129641D83097F1F031D4D9
:1006C20033D48F01309761F00230E0E01E0770F002
:1006D200F80131978F01AA81BB811496ED93FC93A7
:1006E20020D4129624D43197AC81A0831AD426D870
:1006F200FF2312F016D41BD405C013D4EFEFFFEF83
:10070200ED93FC935AD82596089517D4E0E8EA832E
:10071200EFE3EB8349D8EE85FF85EF3FAFEFFA07B2
:1007220031F48AD37ED3A6EBB0E08DD27BC0EF3F0B
:10073200AFE7FA0731F480D374D3A7EBB0E083D2EA
:1007420071C0AB85A73010F0E6E0EB871B85FBD3C9
:1007520011F0FDD3FCCF09D421D819F430E0F7D33E
:100762001BC03B8507D409F008F407C0F0D302D4BC
:1007720018F00AD40ED4FBCF08C0FCD328F404D45A
:1007820013D418D43150F9CFE2D3EFD318D412D402
:10079200F1D310F0F9D3FDD310E0EB85E11710F19E
:1007A20014D418D40CD4DF01CB01A0D2EC83FD8386
:1007B2006E837F83E9D3A8D696D50E2F11D417D492
:1007C200FF2766277727C8D500D450D6DDD3D9D7DF
:1007D200F6D5F0D3E12F1F5FE030F9F601D4EEE257
:1007E200EC93DBCF09D43197AA85A08330302CF467
:1007F2003195A885B985EDE203C0A885B985EBE2FC
:10080200EC93FAD3F9D3FBD31CD7E05DDB01EC9375
:10081200F3D3F5D358D7E05DDB01EC93A885B98516
:10082200E0E0EC93C8D76096089503D3EF97619701
:10083200B9D710E0FE01E85AFF4F0190F081E02D98
:1008420001D3FE01EA5AFF4F0190F081E02DEE83C1
:10085200FF835AD3E0E0F0E0ED93FC93DE01A45A6B
:10086200BF4F65D33197E4912E2FE03009F4A4C134
:10087200E12FE03031F4253211F411E001C0C4D38C
:100882009AC1E130B9F4253211F4BED393C112E01A
:10089200E0E0ED8B00E02D3211F401E08CC12B324F
:1008A20019F4EBE2ED8B87C1203219F4E0E2ED8B13
:1008B20082C102C0E23039F450E013E0203311F477
:1008C200006879C102C0E33091F4203310F02A337A
:1008D20008F007C0AAE05A9F502DE22FE0535E0FA6
:1008E2006AC140E02E3211F414E065C10FC0E43059
:1008F20099F4203310F02A3308F008C00062AAE00D
:100902004A9F402DE22FE0534E0F55C12C3619F469
:10091200026015E050C103C0E53009F04CC1E22F7E
:10092200E33639F478D37ED376D3A481AA9381D3E4
:1009320041C1E53411F0E53609F402C0E636A9F505
:100942007ED382D3FFD687D38BD3AD85AA2332F051
:10095200AD89AB3241F0A03261F012C083D390D4A2
:100962007AD3EDE2ED8B07FF04C0ED89EA9361D300
:1009720007C0EE85FF8531967AD33197AD89A08382
:1009820005FF46E0263639F46DD3F1D64A93AB899A
:10099200BC89BCD107C066D3EAD64A932A93AC89F4
:1009A200BD89B3DE4CD366D318C0E33729F458D3DC
:1009B20066D35DD35FD30AC0E037A1F451D35FD3CE
:1009C20056D3AE85BF8556D11E2F08600F774030B3
:1009D20011F0411708F001C0142F40E0E0E0EC8B69
:1009E20030E05EC0E43611F0E93611F4046002C072
:1009F200E53791F4EAE0EC8B01FF07C0E0E0FAECA6
:100A02006AE97BE33ED31AE01FC0E0E1F7E260E06F
:100A120070E037D315E018C0E83511F4086003C060
:100A2200E83709F0C7C0E0E1EC8B01FF07C0E0E066
:100A3200F0E060E070E125D318E006C0E0E0F0E10C
:100A420060E070E01ED314E0403011F00F7701C077
:100A520041E001FF05C004D3F7D2149673D60AC051
:100A620002FF04C0FDD20BD3D1D504C0F9D207D303
:100A720066277727EA87FB876C877D8702FF0FC08F
:100A8200AD85AA232AF4EED2ACD5E5D2EDE2ED8B08
:100A9200ED89E03019F01F5F4F5F01C00B7F342FEB
:100AA20000FD13C0151710F4351708F00EC007FF2C
:100AB20008C002FF04C00B7F2D89115001C020E342
:100AC20001C020E2A1D25150EDCF141780F4006191
:100AD20002FF05C0DBD209F0515011504150E0E352
:100AE200EA93A7D2503009F051504150EECF312F46
:100AF200EC89E030A9F4303091F003FF05C0EE85B7
:100B0200FF852591B4D205C0AE85BF852D91AE87F4
:100B1200BF877AD2503009F051503150ECCF41C0EA
:100B2200C7D2ACD52E2F2A3030F003FF02C0295C89
:100B320001C0295A01C0205D04FD1DC0213348F4C3
:100B4200C0D2A130E0E0BE07E0E08E07E0E09E0701
:100B520009F40BC0431740F4531710F000FF01C013
:100B62000EC020E207FF07C020E3006102FF03C0BE
:100B72008DD209F0515048D2503009F051503150C5
:100B820097D2BED568D2EC899CD2FF2766277727F9
:100B920075D577D2E889F9896A897B89FFD509F009
:100BA200BFCF00FF07C0503029F05150E0E2EA9376
:100BB20040D2F9CF10E052CEA7D1C0D5FAD5EF96E8
:100BC2006F960895FF92F82E2697EED57FD2309732
:100BD20019F4EFEFFFEF1CC0DE011696FAD48D0177
:100BE20075D2EE83FF83E0E0E887E987DE011A969B
:100BF200F0D4A4D516D11A930A93E9E5F3E011D102
:100C0200DE011A9612DE9F017FD1E0E0EC93F9013A
:100C1200D2D52A96FF900895AA93E881E295EF70C3
:100C2200AE2FAA0FAA0FEA0FEE0FA991AF70EA0F2B
:100C32000895AA93A991EE27AA5012F0E05FFCCF83
:100C4200A65FEA0F0895F5D0E991F991A991B991BA
:100C5200CD0105900D920020E1F7FC010895E9D045
:100C6200A991B991EE27FF276D91662311F0319674
:100C7200FBCF0895DED0AA27BB27E991F991059011
:100C8200002011F01196FBCFFD01089575D57B81EF
:100C92006A81F981E88177FB770F67FD7160972F91
:100CA2009E5781F078F0983190F4AA27BB278827C5
:100CB20008948795B795A7959A95D1F7EA23FB23D0
:100CC200682305C0E8947727EE27FF2766276F770A
:100CD200769508F4606877F9A991B991899199910B
:100CE200EA17FB076807790797FB089545D535D5BD
:100CF200CDDF38D511F4EFD107C0EEF7ECD1A0E08B
:100D0200B0E080E89FE35BD32496089516D1E0E03B
:100D1200EA83EFE3EB834AD5EB85FC85EF3FAFEF48
:100D2200FA0731F492D07DD0AEEBB0E08CDF76C022
:100D3200EF3FAFE7FA0731F488D073D0AFEBB0E002
:100D420082DF6CC0AC85AA2332F4C7D199D2CAD152
:100D5200CED1EDE2EC93A885A73010F0E6E0E8876B
:100D62001885F1D021F0C9D135D1CCD1FACFCFD16C
:100D72002DD3B8D110E0E0E0F0E060E87FE3C2D12B
:100D8200C6D107D468F0B9D10FD1BCD11F5F1732D9
:100D920030F05BD046D0A3ECB0E055DF3FC0F0CFDF
:100DA200103021F4A4D1E0E3EC9319C0CCD0B9F017
:100DB200A4D110D104D1DF01CB0198DFA3D1A7D1F7
:100DC200A3D391D20E2F93D112D1F0E096D11ED49B
:100DD200C3D24CD3A5D1D5D4F2D284D1E7CFE88502
:100DE200E030C1F084D1EEE2EC93E885E150E8878F
:100DF200EF5F81F095D1D8D075D16FD174D20E2F1B
:100E020076D1F5D0F0E08CD101D4A6D2BAD4D7D223
:100E120069D1EBCFAE81BF81E0E0EC93CED42D96C9
:100E22000895FA93EA930895FF27662777279FD4B8
:100E32000895BA93AA930895E885F9850895EE0F67
:100E4200FF1F0895E887F9870895EE81FF810895CD
:100E5200B0E0BCC1E0916A01F0E0E770F070E295A9
:100E6200E07FEE0FDF01E0916901F0E0E87FF070D2
:100E7200C0D3EA2BFB2B0895F201AAE0B0E0CBD35A
:100E82000895AFE7B1E0DBDFAE0FBF1F57D408957F
:100E9200C8DFD201EAE0F0E00895A1EBB0E0CCCBEC
:100EA200B0E0EAE0F0E0E5D3E05DAE2F97CBBB2700
:100EB200EAE0F0E017D4E05DAE2F90DBEECF3AD15E
:100EC200A0ED6CC16BD145C135D1A1ED67D1A1E0D7
:100ED2004AC1AE2FA1CEEC93A1E045D1FACFAA81AF
:100EE200BB81EC93A0E03FD1F4CF58D1A881A1DE21
:100EF200AE2F089553D1A9819CDEAE2F08954ED115
:100F0200AA8197DEAE2F0895AE81BF8108958CE04D
:100F12008A95F1F70895A0E315DB86EF8A95F1F73C
:100F22000895AA81BB810895149608D40895ED917D
:100F3200FD913196FE93EE9308957BDF2497E0E0D6
:100F4200E883E9830895E12F1150E0300895AC81E0
:100F5200BD818E819F81E0E0F0E060E271E486D2A3
:100F6200EC83FD836E837F830895EC85FD856E851A
:100F72007F850895EC81FD816E817F81AC85BD8581
:100F82008E859F8506D30895AC85BD858E859F8508
:100F92000895EDECFCEC6CEC7DE368D2EC87FD8708
:100FA2006E877F873F5F0895E0E0F0E060E271E4E2
:100FB2005DD20895EC87FD876E877F870895A0E054
:100FC200B0E080E09FE302D20895AC81BD818E81C2
:100FD2009F810895EDECFCEC6CEC7DE347D2089523
:100FE200A885B9851196A887B98711970895E02F2A
:100FF200E05DEC93E02F08951FDF319623CF319708
:10100200BF01A32FEAE008952A93AF81B885E9854D
:10101200FA8509950895FE01E65AFF4F0190F08185
:10102200E02D08953497DE01A65ABF4FED93FC934D
:101032000895AF81B885E985FA8509950895FE017D
:101042007696EE87FF870895DE01A65ABF4F0D9070
:10105200BC91A02D0895EA87FB876C877D87089550
:10106200DADFE0CFEA85FB856C857D850895EE8722
:10107200FF870895AE85BF85F2DD1E2F0895E4DF58
:1010820053CFE88BF98B6A8B7B8B08950B7FED89AD
:10109200EA93DE01A95ABF4F0D90BC91A02DFE012B
:1010A200E75AFF4F0190F081E02D099550300895E5
:1010B200E889F9896A897B89AA85BB858C859D85A2
:1010C2000895A889B9898A899B890895DE011C96A9
:1010D20080D234D308953CD30895E985FA856B858F
:1010E2007C850895E987FA876B877C8708950CDFF2
:1010F2001196AE83BF8311970895AA81BB818C811B
:101102009D810895EA83FB836C837D830895EA8140
:10111200FB816C817D81A985BA858B859C8508952B
:10112200A985BA858B859C850895AD98AC98A59ABA
:10113200A49815C0A498A598EE2700009C9B08953A
:101142009D9B089504D0A49A02D0A59AE1E06CE098
:1011520007C0A49AA59A03D0A598F9DFA49869E1DB
:101162006A95F1F7089578E0A598F1DF9D9BFECF8F
:10117200EEDF88949C990894A59AF1DFEE1F7A9588
:1011820099F77A2F772311F4A49801C0A49ADFDF8C
:10119200A598E5DFA59ADBDFA498D9CF78E0AA0F5E
:1011A20010F4A49801C0A49ADADFA598D0DF9D9B21
:1011B200FECFCDDFA59A7A9591F7A498C8DFA598BE
:1011C200CEDFE1E09C99EE27A59AC1CF109639F0C7
:1011D20083E397E00197F1F7A8951197C9F708956E
:1011E200EE2793988B9A85E793E00197F1F78B9816
:1011F20082E28A95F1F7839B08958BEB8A95F1F74A
:10120200839BE1E08FEC92E00197F1F708958B9ACE
:1012120085E08A95F1F78B988BE18A95F1F78894AE
:1012220083990894E79585EC8A95F1F70895E894F7
:101232008B9A85E08A95F1F770FD8B9880E28A950A
:10124200F1F7839903C070FF03C0089570FF0895FA
:1012520088EB8A95F1F78B988CE08A95F1F7689480
:10126200089568E0D4DF6A95E9F708957A2F68E077
:10127200EE27DDDF26F477956A95D9F7E395089591
:1012820030976040704009F070580895552342F439
:10129200503811F4E0FF04C03196691F791F6BF0DA
:1012A20050E8572711F45F93CFC05F3F31F0660FCC
:1012B200000C57956795752F08955F9300200AF0EB
:1012C200CFC0C8C050E8192E1522880F991F952744
:1012D200550F879550E8072E0522660F771F752751
:1012E200550F67950895689401C0E8945F93F2DF03
:1012F200703818F07F3F08F4A7C056E1571BAAF4D4
:10130200519558300EF4593030F0EFEFFFEF6FEF98
:101312007FE777F91AC077275523B9F0EE0FFF1F41
:10132200661F771F5A95D1F710C07727583028F0DB
:10133200EF2FF62F672F5850F9CF552331F07695BE
:101342006795F795E7955A95D1F700200AF449D1A8
:101352005F910895689401C0E894309760407040AE
:10136200B1F0002426F0772312F400943AD1172E1C
:101372007EE1112032F07A95EE0FFF1F661F111CDD
:10138200F9CFEF2FF62F612D5F938ADF5F910895DA
:101392004F93AF01FD01DA01AB01BC01CA01402D3F
:1013A200012C142E4F910895EA0FFB1F681F089518
:1013B200E095F0956095EF5FFF4F6F4F08955F9353
:1013C20081DF903871F150E8152604C05F937ADF0F
:1013D200903839F1703821F1572F591B2BF112F443
:1013E200D7DFFACF583118F0AA27BB278827583001
:1013F20028F0AB2FB82F88275850F9CF552329F062
:101402008695B795A7955A95D9F7502D512572F023
:10141200CBDF38F46795F795E795739513F420C001
:10142200B7DF3EDF5F910895D8F7FBCFEA1BFB0BD6
:10143200680B51F010F40094BBDF662392F3EE0FB9
:10144200FF1F661F7A95CBF7EE27FF2766277727C0
:101452005F910895EFEFFFEF6FE77FEF5F910895E0
:10146200EFEFFFEF6FE77FE75F9108955F932ADF6A
:10147200703851F3903841F301240894791F23F412
:101482001CF300203AF3ECCF0F921F932F933F935C
:101492004F93112722279927689FA0018F9F302DF4
:1014A200410D591F6B9F300D411D591F8E9F27D033
:1014B200BF9F25D06A9F23D0BE9F1DD0AF9F1BD058
:1014C200AE9F110D291F391F491F591FE32FF42FFA
:1014D200652F522F4F913F912F911F910F906623AD
:1014E2002AF0550FEE1FFF1F661F02C073954BF2C5
:1014F200CDDE5F910895100D211D391F02C0200D10
:10150200311D491F591F08955F93DCDE703821F4A5
:1015120011200AF49FCFA4CF903809F495CF01246B
:101522000894970B1BF4D4F30020F3CF792F1F9369
:101532002F933F934F9311241127222733274427B8
:10154200552790E2AE17BF078607410730F0AE1B62
:10155200BF0B860B410B089401C08894551F221FB4
:10156200331F111CAA1FBB1F881F441F9A9551F7D6
:10157200F901612D4F913F912F911F91662332F016
:10158200550FEE1FFF1F661F7A9543F27FDE5F91B4
:10159200089599239AF0772342F0971748F029F497
:1015A200AE17BF07860720F031F09894889408950B
:1015B2009894089408951894889408957723C2F70C
:1015C200971798F3A9F7EA17FB07680788F399F3C7
:1015D200ECCF0024AF0DB01D0895F195E195F040D8
:1015E2000895F09560957095E195FF4F6F4F7F4F8D
:1015F2000895F595E795F595E795F595E79508959D
:10160200FE2FFF0FFF0B6F2F7F2F08956F2F660F97
:10161200660B762F0895FA9FF02DEB9FF00DEA9F4F
:10162200E02DF10D0895002498E0AA0F001C0E1A77
:1016320010F40E0E01C0A1609A95B9F7EA2FA02D01
:10164200089562D0F0DF0EF4E1950895002411248C
:1016520090E1AA0FBB1F001C111C0E1A1F0A18F4DE
:101662000E0E1F1E01C0A1609A9599F7FD01D001CF
:10167200089556D0EBDF0EF4B0DF08953F934F93F9
:101682005F93002411244427552730E2AA0FBB1F81
:10169200881F991F001C111C441F551F0E1A1F0A78
:1016A200460B570B28F40E0E1F1E461F571F01C074
:1016B200A1603A9559F7FD01BC01D001CA015F91C1
:1016C2004F913F910895E894A7FF02C0A1956894B5
:1016D200E7FDE195A8DFEA2F0EF4E1950895B6DF64
:1016E200FD010895E894B7FF04C0A095B095119646
:1016F2006894F7FD72DFAADFFD010EF46EDF089534
:10170200BDDFFD01BC010895E894E7FF02C0E19549
:101712006894A7FF04C0A19500F8039400FA089505
:10172200E894F7FF02C059DF6894B7FF06C0A0959E
:10173200B095119600F8039400FA0895ED91FC918A
:1017420011970895ED91FD916D917C9113970895F4
:10175200E881F9816A817B810895A881B9818A81B2
:101762009B810895E883F9836A837B8308957A9342
:101772006A93FA93EA9308959A938A93BA93AA93EF
:101782000895182E862F612D192E972F712D1B2E3D
:10179200BF2FF12D1A2EAE2FE12D08953097604004
:1017A200704008955A934A933A932A931A930A934C
:1017B20008955D814C813B812A81198108810895B8
:00000001FF
